:100000000EC028C0C8C0C1C325C024C023C022C0A0
:1000100021C020C0E4C01EC081C21CC0F7C0112492
:100020001FBECFE5D1E0DEBFCDBF10E0A0E6B0E05F
:10003000E8E3FCE002C005900D92A239B107D9F7C0
:1000400020E0A2E9B0E001C01D92A53CB207E1F7B3
:1000500012D4F0C5D5CFA3E0B0E0E0E3F0E055C4A2
:100060008091600090916100A091620089839A83E1
:10007000AB8363E070E0CE0101961DD360ED77E0C5
:1000800080E090E08CD269D02396E2E05AC4ACE0E4
:10009000B0E0ECE4F0E039C487E0E3E6F0E0DE0154
:1000A000119601900D928A95E1F767E070E0CE011C
:1000B000019601D365E070E0CE0108964ED19C0117
:1000C0002E5F3F4F2230310520F447D08FEF9FEF56
:1000D00022C0029791F0809192008431B1F7809113
:1000E0009300D7D0853489F780919400D2D082359F
:1000F00061F733D08EEF9FEF0EC088858F3429F7DC
:1001000089858B3411F760ED77E080E090E047D28D
:1001100024D080E090E02C96E2E013C4CF93DF93EC
:10012000C3E0D0E0B4DF029631F464E670E083E02F
:100130007ED22197B9F7DF91CF91089583B780934D
:10014000AF008AB58093B0001DB8A89A8BB78062C3
:100150008BBFB898C09A789408951092920010922C
:100160009300089582B78093AE001092AD008BB7D4
:100170008F7D8BBF82E08ABD83BF8CB581608CBDD3
:1001800012BE80E389BD88B7806188BF89B780616E
:1001900089BF789408951F920F920FB60F92112481
:1001A0002F933F934F935F936F937F938F939F937F
:1001B000AF93BF93EF93FF93B09BD4DFFF91EF9189
:1001C000BF91AF919F918F917F916F915F914F916F
:1001D0003F912F910F900FBE0F901F9018951F9277
:1001E0000F920FB60F9211248F9389B78F7E89BF1C
:1001F00012BE88E689BD8DB184648DB988E48EB95C
:100200008F910F900FBE0F901F9018951F920F9215
:100210000FB60F9211248F93EF93FF9380B38093C7
:10022000AC0080919200883138F080B380939300C5
:100230001092940081E010C0E0919200F0E080B351
:10024000ED56FF4F8083E0919200F0E0EC56FF4FB7
:100250001082809192008F5F809392001DB881E0A0
:100260008093AD008091B0008ABD8091AF0083BFC4
:100270008091AE0082BF80E28ABF8BB780628BBF65
:100280007894FF91EF918F910F900FBE0F901F9078
:100290001895982F96959575880F8A7A982B892F9F
:1002A000869586958373990F990F9C7C892B8295EF
:1002B0000895EF92FF920F931F93CF93DF937C01EA
:1002C0008B01C0E0D0E0C017D1075CF4F701EC0F60
:1002D000FD1F8081DEDF8D3039F08A3029F02196D4
:1002E000F2CF8FEF9FEF01C0CE01CDB7DEB7E6E0D2
:1002F00024C3A0E0B0E0EEE7F1E001C38C017B0194
:100300006091920070E083E990E0D3DF8F3F2FEFA0
:100310009207E9F0EC01E816F9060CF4E701680130
:10032000E12CF12CEC16FD0664F4F701ED56FF4FBD
:100330008081AFDFF60181936F01FFEFEF1AFF0AB3
:10034000F1CFF801EC0FFD1F1082CE0102C08FEF3C
:100350009FEFCDB7DEB7E8E0EEC2EF92FF920F93CA
:100360001F93CF93DF938C017B01C0EDD7E0809189
:100370009200882339F0809192008823D1F0C0ED5B
:10038000D7E008C061E070E080E090E008D12197FC
:1003900071F7F1CFB701C801ACDF181619065CF090
:1003A00061E070E080E090E0FAD0219799F78EEF5D
:1003B00001C08FEF9FEFCDB7DEB7E6E0BEC2ABE086
:1003C000B0E0E4EEF1E0A1C286E0EAE6F0E0DE01B2
:1003D000119601900D928A95E1F766E070E0CE01EA
:1003E000019669D165E070E0CE010796B6DFB5DE13
:1003F0004AE050E060E070E0CE010796ADD2CB015C
:100400002B96E2E09EC2A5E1B0E0E8E0F2E07BC21C
:1004100064E670E083E00BD1D2DF8C0168EE73E01C
:1004200080E090E0BCD0C801885C9109893C9105CE
:10043000D8F587E0E0E7F0E0DE01119601900D923B
:100440008A95E1F7FE01389689E0DF011D928A95D1
:10045000E9F728E030E04AE050E0BE01695F7F4FF5
:10046000C80166D0019621F164E670E082E0DFD039
:100470006FE070E0CE0101961ED165E070E0CE0124
:1004800041966BDF029751F489898F3439F48A8958
:100490008B3421F468EC70E084E003C068EC70E019
:1004A00083E0C5D05ADE08C00F3F2FEF120721F4BA
:1004B00068EC70E082E0BBD06596E4E040C29C014D
:1004C0000A9714F029E030E0922F97702830310518
:1004D0000CF09062906184B7877F84BF81B588619A
:1004E00081BD91BD81B5806481BD089525B797B365
:1004F000379885B7877E806185BF85B7846985BF5A
:1005000085B7837F85BF85B7806285BF889585B7AE
:100510008F7D85BF379A25BF97BB08951F920F9295
:100520000FB60F9211240F900FBE0F901F901895C9
:10053000CF93DF936115710569F1FC0140E050E054
:100540004F5F5F4FA4E0F695E795AA95E1F73097E6
:10055000B9F7DB01A20FB31FED01FC01EF70FF271C
:10056000E058FF4FE081EA93E4E096958795EA959D
:10057000E1F7009791F7FB01241B350BC0E3CF0196
:10058000861B970B8217930714F4C193F8CF1C9224
:10059000CA0102C08FEF9FEFDF91CF9108950F93B3
:1005A0001F931092C2001092C1001092BD001092D1
:1005B000BE001092BF001092C00027E820BF2CB5EB
:1005C00022602CBD1FBC2DE72DBD28B7206428BF9D
:1005D00029B7206429BF78940091BD001091BE0016
:1005E0002091BF003091C000061717072807390770
:1005F00098F389B78F7B89BF1F910F91089521E0F0
:1006000030E03093C2002093C10091E09093BC0091
:1006100094E890BF9CB592609CBD1FBC8DBD88B70F
:10062000806488BF89B7806489BF78940895CF9229
:10063000DF92EF92FF92CF93DF93D82FC0E06B0150
:10064000770FEE08FF08CD1751F0C49AC701B60125
:10065000A6DFC498C701B601A2DFCF5FF4CFDF9158
:10066000CF91FF90EF90DF90CF90089508950F9372
:100670001F93CF93DF9380919200082F10E0011514
:10068000110549F468EC70E082E0D1DFDF91CF9191
:100690001F910F9108956CE271E0C9DFC0E0D0E0D6
:1006A000FE01ED56FF4F8081F4DDA9DF2196C017D2
:1006B000D107B4F3E7CF22E030E03093C2002093BB
:1006C000C1001092B8001092B9001092BA001092B6
:1006D000BB001092B700AB0160E070E04093B10046
:1006E0005093B2006093B3007093B4009093B6003F
:1006F0008093B50089B78F7B89BF84E880BF8CB5B4
:1007000082608CBD1FBC8CE58DBD88B7806488BFBE
:10071000C19889B7806489BF78948091B7008C3084
:10072000E0F389B78F7B89BFC19A8091B80090911F
:10073000B900A091BA00B091BB000196A11DB11DF6
:100740008093B8009093B900A093BA00B093BB0017
:100750004091B8005091B9006091BA007091BB000F
:100760008091B1009091B200A091B300B091B4001B
:10077000481759076A077B0738F41092B7008CB501
:1007800082608CBD1FBCC1CF08951F920F920FB61F
:100790000F9211242F933F938F939F93AF93BF9307
:1007A000EF93FF938091C1009091C200029749F5A9
:1007B00088E68DBD8091B8009091B900A091BA00F3
:1007C000B091BB002091B5003091B600F901E80F5F
:1007D000F91F80812091B70090E002C09595879520
:1007E0002A95E2F780FD04C08091B700883010F0B0
:1007F000C19A01C0C1988091B7008F5F8093B70004
:100800002DC08091C1009091C200019771F4809138
:10081000BC00882311F0C49A01C0C4989091BC0018
:1008200081E0891B8093BC0019C08091C100909128
:10083000C200892B99F48091BD009091BE00A091D7
:10084000BF00B091C0000196A11DB11D8093BD00F5
:100850009093BE00A093BF00B093C000FF91EF91B2
:10086000BF91AF919F918F913F912F910F900FBEAC
:100870000F901F901895A0E2B0E0E0E4F4E03CC0D7
:100880005DDC88E090E01BDEBC9AC498B99AC19AFE
:10089000E2DB44DC8DE0982E29DE0091920010E02E
:1008A000CE0101966C01E12CF12C5C01E016F10601
:1008B00064F4F701ED56FF4F8081EBDCF601819384
:1008C0006F01FFEFEF1AFF0AF1CFF501E00FF11F03
:1008D0009082B8016F5F7F4FC501EDDE3EDC68EEB0
:1008E00073E080E090E05BDED7CF2F923F924F9293
:1008F0005F926F927F928F929F92AF92BF92CF92B0
:10090000DF92EF92FF920F931F93CF93DF93CDB7B8
:10091000DEB7CA1BDB0B0FB6F894DEBF0FBECDBF30
:1009200009942A88398848885F846E847D848C8401
:100930009B84AA84B984C884DF80EE80FD800C810A
:100940001B81AA81B981CE0FD11D0FB6F894DEBFED
:100950000FBECDBFED010895A3E0B0E0E1EBF4E000
:10096000C4CF5C016B017A016115710519F0FB01BF
:1009700091838083E114F10429F0C70102978397E2
:1009800008F0FDC085010F5F1F4FF501F081FA836C
:100990008F2F90E009D1892B11F05801F3CF2A81D4
:1009A0002D3241F40F5F1F4FF501F181FA8321E0F1
:1009B0002B830AC08A818B3231F485010E5F1F4F71
:1009C000F501F181FA831B82E114F104F9F020E1D1
:1009D000E216F10419F442C0F0E3FA8388E0E81665
:1009E000F10431F154F4E2E0EE16F10451F5812CFA
:1009F000912CA12C50E4B52E48C0FAE0EF16F1047A
:100A000041F020E1E216F104E1F43AC08A8180333A
:100A100041F13AE0E32EF12C4CEC842E982CA82CDA
:100A20004CE0B42E32C0E114F104B1F680E38A83C5
:100A300098E0E92EF12C812C912CA12C20E1B22EF2
:100A400024C060E070E080E090E897010F2C000C7B
:100A5000440B550BCDD049015A0117C02A812033D0
:100A600079F4F80180818F7D8835E9F6F181FA8388
:100A70000E5F1F4F2B8122602B8360E1E62EF12C4D
:100A8000812C912CA12C88E0B82E80E020E030E071
:100A9000A90127010F2C000C6608770818019A811C
:100AA000905399839A3078F09A8191549A3120F436
:100AB000EA81E753E98307C09A8191569A3148F554
:100AC000FA81F755F9839981692F70E06E157F05DA
:100AD00004F587FD18C082169306A406B50680F0BB
:100AE000C301B2016CD09B01AC01E9812E0F311D15
:100AF000411D511D213031054105F0E85F0710F01F
:100B00008FEF01C081E00F5F1F4FF101F081FA8389
:100B1000C5CF9B819170C114D10489F0882331F035
:100B200001501109F6011183008309C0FB81F1FF17
:100B30001AC002501109F6011183008314C087FF07
:100B400012C0992329F020E030E040E050E804C0D2
:100B50002FEF3FEF4FEF5FE782E290E09093C4000A
:100B60008093C30009C0992379F050954095309542
:100B700021953F4F4F4F5F4FB901CA0112C060E04E
:100B800070E080E090E00DC057FFF6CF82E290E089
:100B90009093C4008093C3002FEF3FEF4FEF5FE7C8
:100BA000EBCF2396E2E1BDCE911106C0803219F061
:100BB00089508550D0F70895992788270895EE2702
:100BC000FF27AA27BB2708C0A20FB31FE41FF51FEA
:100BD000220F331F441F551F96958795779567956C
:100BE00098F37040A9F7009799F7BD01CF010895D8
:100BF000A1E21A2EAA1BBB1BFD010DC0AA1FBB1F21
:100C0000EE1FFF1FA217B307E407F50720F0A21B92
:100C1000B30BE40BF50B661F771F881F991F1A94FF
:100C200069F760957095809590959B01AC01BD0129
:080C3000CF010895F894FFCFF5
:100C38000D0D0D415424503D310D415424543F0DA8
:100C480041542453463D000000000000000000000D
:100C580030313233343536373839414243444546EA
:020C680000008A
:00000001FF
