:100000000EC028C057C0AEC125C024C023C022C026
:1000100021C020C073C01EC00BC11CC086C01124EB
:100020001FBECFE5D1E0DEBFCDBF10E0A0E6B0E05F
:10003000ECECF4E002C005900D92AC36B107D9F7B4
:1000400020E0ACE6B0E001C01D92A538B207E1F7B0
:10005000C8D13AC2D5CFF89483B780937C008AB5D3
:1000600080937D001DB8A89A8BB780628BBFB8982B
:10007000C09A7894089510926C0010926D000895C3
:10008000F89482B780937B0010927A008BB78F7DB3
:100090008BBF82E08ABD83BF8CB581608CBD12BEF0
:1000A00080E389BD88B7806188BF89B7806189BFD7
:1000B000789408951F920F920FB60F9211242F93E8
:1000C0003F934F935F936F937F938F939F93AF93E0
:1000D000BF93EF93FF93B09BD3DFFF91EF91BF915D
:1000E000AF919F918F917F916F915F914F913F91D0
:1000F0002F910F900FBE0F901F9018951F920F9287
:100100000FB60F9211248F9389B78F7E89BF12BECD
:1001100088E689BD8DB184648DB988E48EB98F91EC
:100120000F900FBE0F901F9018951F920F920FB651
:100130000F9211248F93EF93FF93F89480B38093E1
:10014000790080916C008B3038F080B380936D0023
:1001500010926E0081E010C0E0916C00F0E080B37E
:10016000E359FF4F8083E0916C00F0E0E259FF4FCC
:10017000108280916C008F5F80936C001DB881E0CD
:1001800080937A0080917D008ABD80917C0083BF3E
:1001900080917B0082BF80E28ABF8BB780628BBF79
:1001A0007894FF91EF918F910F900FBE0F901F9059
:1001B0001895982F96959575880F8A7A982B892F80
:1001C000869586958373990F990F9C7C892B8295D0
:1001D00008959C010A9714F029E030E0922F97705F
:1001E000283031050CF09062906184B7877F84BF1E
:1001F00081B5886181BD91BD81B5806481BD08955F
:1002000025B797B3379885B7877E806185BF85B757
:10021000846985BF85B7837F85BF85B7806285BFC9
:10022000889585B78F7D85BF379A25BF97BB089581
:100230001F920F920FB60F9211240F900FBE0F90C6
:100240001F9018950F931F93F894109284001092AA
:10025000830010927F001092800010928100109213
:10026000820027E820BF2CB522602CBD1FBC2DE7E3
:100270002DBD28B7206428BF29B7206429BF7894F2
:1002800000917F00109180002091810030918200C8
:10029000061717072807390798F389B78F7B89BF97
:1002A0001F910F910895F89421E030E0309384007D
:1002B0002093830091E090937E0094E890BF9CB5DA
:1002C00092609CBD1FBC8DBD88B7806488BF89B714
:1002D000806489BF78940895CF92DF92EF92FF9265
:1002E000CF93DF93D82FC0E06B01770FEE08FF08A4
:1002F000CD1751F0C49AC701B601A4DFC498C70155
:10030000B601A0DFCF5FF4CFDF91CF91FF90EF90E8
:10031000DF90CF900895B199FECFB19BFECF0895A5
:100320000F931F93CF93DF93F6DF00916C0010E0E3
:100330000115110549F468EC70E082E0CDDFDF9132
:10034000CF911F910F910895C0E0D0E0FE01E359D5
:10035000FF4F80812EDFA7DFDEDF2196C017D10798
:10036000ACF3E9CF1F920F920FB60F9211248F9327
:100370009F93AF93BF9380918300909184000197E6
:1003800071F480917E00882311F0C49A01C0C49852
:1003900090917E0081E0891B80937E0019C080913E
:1003A000830090918400892B99F480917F00909133
:1003B0008000A0918100B09182000196A11DB11D25
:1003C00080937F0090938000A0938100B09382007F
:1003D000BF91AF919F918F910F900FBE0F901F9083
:1003E0001895ABE0B0E0E6EFF1E05EC034DE88E007
:1003F00090E0EFDEB998C19ABC9AC49801DF8FEF04
:1004000052DF2FEF84E39CE0215080409040E1F7E1
:1004100000C0000089B78F7B89BFC498EFEFF4E379
:100420002CE0E150F0402040E1F700C000008BE0FC
:10043000E0E6F0E0DE01119601900D928A95E1F779
:1004400080916C00282F30E02B303105C4F0CE01B4
:1004500001967C0100E010E0F801E359FF4F808134
:10046000A8DEF70191917F0189130EC00F5F1F4F26
:100470000B30110589F768EC70E084E002C068EC8D
:1004800070E02ADFF8DDBACF68EC70E082E0F9CFE7
:100490002F923F924F925F926F927F928F929F9294
:1004A000AF92BF92CF92DF92EF92FF920F931F9382
:1004B000CF93DF93CDB7DEB7CA1BDB0B0FB6F89433
:0C04C000DEBF0FBECDBF0994F894FFCF43
:0C04CC0053414C555445204E45414C0016
:00000001FF
