:100000000EC028C057C01CC225C024C023C022C0B7
:1000100021C020C073C01EC00BC11CC086C01124EB
:100020001FBECFE5D1E0DEBFCDBF10E0A0E6B0E05F
:10003000EAEAF5E002C005900D92A636B107D9F7BD
:1000400020E0A6E6B0E001C01D92AA38B207E1F7B1
:100050006DD2A9C2D5CFF89483B7809376008AB5C4
:10006000809377001DB8A89A8BB780628BBFB89831
:10007000C09A7894089510926600109267000895CF
:10008000F89482B780937500109274008BB78F7DBF
:100090008BBF82E08ABD83BF8CB581608CBD12BEF0
:1000A00080E389BD88B7806188BF89B7806189BFD7
:1000B000789408951F920F920FB60F9211242F93E8
:1000C0003F934F935F936F937F938F939F93AF93E0
:1000D000BF93EF93FF93B09BD3DFFF91EF91BF915D
:1000E000AF919F918F917F916F915F914F913F91D0
:1000F0002F910F900FBE0F901F9018951F920F9287
:100100000FB60F9211248F9389B78F7E89BF12BECD
:1001100088E689BD8DB184648DB988E48EB98F91EC
:100120000F900FBE0F901F9018951F920F920FB651
:100130000F9211248F93EF93FF93F89480B38093E1
:100140007300809166008B3038F080B38093670035
:100150001092680081E010C0E0916600F0E080B38A
:10016000E959FF4F8083E0916600F0E0E859FF4FC6
:100170001082809166008F5F809366001DB881E0D9
:1001800080937400809177008ABD8091760083BF50
:100190008091750082BF80E28ABF8BB780628BBF7F
:1001A0007894FF91EF918F910F900FBE0F901F9059
:1001B0001895982F96959575880F8A7A982B892F80
:1001C000869586958373990F990F9C7C892B8295D0
:1001D00008959C010A9714F029E030E0922F97705F
:1001E000283031050CF09062906184B7877F84BF1E
:1001F00081B5886181BD91BD81B5806481BD08955F
:1002000025B797B3379885B7877E806185BF85B757
:10021000846985BF85B7837F85BF85B7806285BFC9
:10022000889585B78F7D85BF379A25BF97BB089581
:100230001F920F920FB60F9211240F900FBE0F90C6
:100240001F9018950F931F93F894109289001092A5
:1002500088001092840010928500109286001092FF
:10026000870027E820BF2CB522602CBD1FBC2DE7DE
:100270002DBD28B7206428BF29B7206429BF7894F2
:1002800000918400109185002091860030918700B4
:10029000061717072807390798F389B78F7B89BF97
:1002A0001F910F910895F89421E030E03093890078
:1002B0002093880091E09093830094E890BF9CB5D0
:1002C00092609CBD1FBC8DBD88B7806488BF89B714
:1002D000806489BF78940895CF92DF92EF92FF9265
:1002E000CF93DF93D82FC0E06B01770FEE08FF08A4
:1002F000CD1751F0C49AC701B601A4DFC498C70155
:10030000B601A0DFCF5FF4CFDF91CF91FF90EF90E8
:10031000DF90CF900895B199FECFB19BFECF0895A5
:100320000F931F93CF93DF93F6DF0091660010E0E9
:100330000115110549F468EC70E082E0CDDFDF9132
:10034000CF911F910F910895C0E0D0E0FE01E959CF
:10035000FF4F80812EDFA7DFDEDF2196C017D10798
:10036000ACF3E9CF22E030E030938900209388009D
:1003700010927F00109280001092810010928200F3
:1003800010927E00AB0160E070E0409378005093E3
:10039000790060937A0070937B0090937D00809346
:1003A0007C0089B78F7B89BF84E880BF8CB5826071
:1003B0008CBD1FBC8CE58DBD88B7806488BFC39899
:1003C000789489B7806489BF80917E008C30E0F397
:1003D00089B78F7B89BFC39A80917F0090918000FD
:1003E000A0918100B09182000196A11DB11D809362
:1003F0007F0090938000A0938100B0938200409191
:100400007F00509180006091810070918200809106
:10041000780090917900A0917A00B0917B00481704
:1004200059076A077B0758F410927E008CB58260EA
:100430008CBD1FBC88B7806488BFC398C2CF0895A5
:100440001F920F920FB60F9211242F933F938F9309
:100450009F93AF93BF93EF93FF9380918800909108
:100460008900029749F588E68DBD80917F009091C3
:100470008000A0918100B091820020917C00309199
:100480007D00F901E80FF91F808120917E0090E046
:1004900002C0959587952A95E2F780FD04C080916A
:1004A0007E00883010F0C39A01C0C39880917E000E
:1004B0008F5F80937E002DC080918800909189008D
:1004C000019771F480918300882311F0C49A01C0D0
:1004D000C4989091830081E0891B8093830019C0A8
:1004E0008091880090918900892B99F480918400F3
:1004F00090918500A0918600B09187000196A11D82
:10050000B11D8093840090938500A0938600B093E2
:100510008700FF91EF91BF91AF919F918F913F9194
:100520002F910F900FBE0F901F901895A6E0B0E08E
:10053000EBE9F2E02CC08FDDB998C19ABC9AC4985F
:10054000BB9AC39AB199FECF86E0E0E6F0E0DE0107
:10055000119601900D928A95E1F765E070E0CE0169
:10056000019600DF68EC70E082E0B6DEEBCF2F9200
:100570003F924F925F926F927F928F929F92AF9233
:10058000BF92CF92DF92EF92FF920F931F93CF9380
:10059000DF93CDB7DEB7CA1BDB0B0FB6F894DEBF17
:0A05A0000FBECDBF0994F894FFCF01
:0605AA0048454C4C4F00D7
:00000001FF
