:100000000EC028C01DC1DBC225C024C023C022C031
:1000100021C020C039C11EC0D0C11CC04CC1112498
:100020001FBECFE5D1E0DEBFCDBF10E0A0E6B0E05F
:10003000E0EDFAE002C005900D92A838B107D9F7BB
:1000400020E0A8E8B0E001C01D92AE3AB207E1F7A7
:100050002CD33CC5D5CFCF93DF936115710569F1E2
:10006000FC0140E050E04F5F5F4FA4E0F695E7955C
:10007000AA95E1F73097B9F7DB01A20FB31FED01A5
:10008000FC01EF70FF27EA58FF4FE081EA93E4E0BC
:1000900096958795EA95E1F7009791F7FB01241B68
:1000A000350BC0E3CF01861B970B8217930714F41F
:1000B000C193F8CF1C92CA0102C08FEF9FEFDF916E
:1000C000CF910895EF92FF920F931F93CF93DF93F9
:1000D0007C01C0E0D0E08B0101501109C017D107AD
:1000E0007CF4F70181917F0129D18D3011F02196A7
:1000F000F5CFF701808122D18A30C9F7CE0102C045
:100100008FEF9FEFCDB7DEB7E6E063C3A0E0B0E0CE
:10011000EBE8F0E040C38C017B016091880070E067
:1001200089E890E0CFDF8F3F2FEF9207E9F0EC01F5
:10013000E816F9060CF4E7016801E12CF12CEC1645
:10014000FD0664F4F701E757FF4F8081F7D0F60111
:1001500081936F01FFEFEF1AFF0AF1CFF801EC0F67
:10016000FD1F1082CE0102C08FEF9FEFCDB7DEB72B
:10017000E8E02DC30F931F93CF93DF93EC018B0126
:10018000809188008823E1F3B801CE01BFDF181603
:100190001906D4F7DF91CF911F910F910895ABE02D
:1001A000B0E0E4EDF0E0FDC286E0E0E6F0E0DE0184
:1001B000119601900D928A95E1F766E070E0CE010C
:1001C000019693D165E070E0CE010796D3DF1AD097
:1001D0004AE050E060E070E0CE01079609D3CB0121
:1001E0002B96E2E0FAC283B7809398008AB5809399
:1001F00099001DB8A89A8BB780628BBFB898C09A37
:10020000789408951092880010928900089582B71A
:1002100080939700109296008BB78F7D8BBF82E002
:100220008ABD83BF8CB581608CBD12BE80E389BD61
:1002300088B7806188BF89B7806189BF7894089545
:100240001F920F920FB60F9211242F933F934F934B
:100250005F936F937F938F939F93AF93BF93EF932E
:10026000FF93B09BD4DFFF91EF91BF91AF919F912E
:100270008F917F916F915F914F913F912F910F904F
:100280000FBE0F901F9018951F920F920FB60F92EE
:1002900011248F9389B78F7E89BF12BE88E689BDEE
:1002A0008DB184648DB988E48EB98F910F900FBEA3
:1002B0000F901F9018951F920F920FB60F92112456
:1002C0008F93EF93FF9380B3809395008091880084
:1002D0008B3038F080B38093890010928A0081E0DF
:1002E00010C0E0918800F0E080B3E757FF4F8083B3
:1002F000E0918800F0E0E657FF4F1082809188007F
:100300008F5F809388001DB881E080939600809174
:1003100099008ABD8091980083BF8091970082BF29
:1003200080E28ABF8BB780628BBF7894FF91EF9198
:100330008F910F900FBE0F901F901895982F969544
:100340009575880F8A7A982B892F86958695837361
:10035000990F990F9C7C892B829508959C010A978F
:1003600014F029E030E0922F9770283031050CF01E
:100370009062906184B7877F84BF81B5886181BDB9
:1003800091BD81B5806481BD089525B797B3379835
:1003900085B7877E806185BF85B7846985BF85B74E
:1003A000837F85BF85B7806285BF889585B78F7D40
:1003B00085BF379A25BF97BB08951F920F920FB63E
:1003C0000F9211240F900FBE0F901F9018950F934E
:1003D0001F931092AB001092AA001092A6001092E8
:1003E000A7001092A8001092A90027E820BF2CB502
:1003F00022602CBD1FBC2DE72DBD28B7206428BF6F
:1004000029B7206429BF78940091A6001091A70015
:100410002091A8003091A90006171707280739076F
:1004200098F389B78F7B89BF1F910F91089521E0C1
:1004300030E03093AB002093AA0091E09093A500A8
:1004400094E890BF9CB592609CBD1FBC8DBD88B7E1
:10045000806488BF89B7806489BF78940895CF92FB
:10046000DF92EF92FF92CF93DF93D82FC0E06B0122
:10047000770FEE08FF08CD1751F0C49AC701B601F7
:10048000A6DFC498C701B601A2DFCF5FF4CFDF912A
:10049000CF91FF90EF90DF90CF900895B199FECF6C
:1004A000B19BFECF08950F931F93CF93DF93F6DF99
:1004B0000091880010E00115110549F468EC70E026
:1004C00082E0CDDFDF91CF911F910F910895C0E0C1
:1004D000D0E0FE01E757FF4F808130DFA8DFDEDF8D
:1004E0002196C017D107ACF3E9CF22E030E030937A
:1004F000AB002093AA001092A1001092A2001092CB
:10050000A3001092A4001092A000AB0160E070E084
:1005100040939A0050939B0060939C0070939D00C1
:1005200090939F0080939E0089B78F7B89BF84E85A
:1005300080BF8CB582608CBD1FBC8CE58DBD88B73B
:10054000806488BFC39889B7806489BF789480919C
:10055000A0008C30E0F389B78F7B89BFC39A80916C
:10056000A1009091A200A091A300B091A4000196D7
:10057000A11DB11D8093A1009093A200A093A300A0
:10058000B093A4004091A1005091A2006091A300FB
:100590007091A40080919A0090919B00A0919C0082
:1005A000B0919D00481759076A077B0738F41092ED
:1005B000A0008CB582608CBD1FBCC1CF08951F9276
:1005C0000F920FB60F9211242F933F938F939F9307
:1005D000AF93BF93EF93FF938091AA009091AB00EC
:1005E000029749F588E68DBD8091A1009091A20007
:1005F000A091A300B091A40020919E0030919F0093
:10060000F901E80FF91F80812091A00090E002C05D
:10061000959587952A95E2F780FD04C08091A0000A
:10062000883010F0C39A01C0C3988091A0008F5FFA
:100630008093A0002DC08091AA009091AB000197FB
:1006400071F48091A500882311F0C49A01C0C49868
:100650009091A50081E0891B8093A50019C080912D
:10066000AA009091AB00892B99F48091A6009091FB
:10067000A700A091A800B091A9000196A11DB11DED
:100680008093A6009093A700A093A800B093A90020
:10069000FF91EF91BF91AF919F918F913F912F91DA
:1006A0000F900FBE0F901F901895CF93DF93CDB78B
:1006B000DEB765970FB6F894DEBF0FBECDBF93DDF2
:1006C00088E090E04BDEB998C19ABC9AC498BB9A76
:1006D000C39A89E0F82E6E0188E0C80ED11C55DE61
:1006E000B199FDCF64E670E083E0B9DE58DD8C019E
:1006F00068EE73E080E090E06ADEC801885C9109F2
:10070000893C9105A8F587E0E6E6F0E0DE01119668
:1007100001900D928A95E1F7F6018F2D11928A953D
:10072000E9F728E030E04AE050E0BE01695F7F4F22
:10073000C80191DC64E670E082E091DE6FE070E079
:10074000CE010196D2DE65E070E0CE01419612DD69
:10075000029751F489898F3439F48A898B3421F4D2
:1007600068EC70E084E00BC068EC70E083E007C0E8
:100770000F3F1F4F09F0B3CF68EC70E082E06FDEEF
:10078000AECF2F923F924F925F926F927F928F9255
:100790009F92AF92BF92CF92DF92EF92FF920F9310
:1007A0001F93CF93DF93CDB7DEB7CA1BDB0B0FB61A
:1007B000F894DEBF0FBECDBF09942A8839884888D7
:1007C0005F846E847D848C849B84AA84B984C8846D
:1007D000DF80EE80FD800C811B81AA81B981CE0F64
:1007E000D11D0FB6F894DEBF0FBECDBFED01089549
:1007F000A3E0B0E0EDEFF3E0C4CF5C016B017A0160
:100800006115710519F0FB0191838083E114F104F6
:1008100029F0C7010297839708F0FDC085010F5F9B
:100820001F4FF501F081FA838F2F90E009D1892BBA
:1008300011F05801F3CF2A812D3241F40F5F1F4F81
:10084000F501F181FA8321E02B830AC08A818B3282
:1008500031F485010E5F1F4FF501F181FA831B8290
:10086000E114F104F9F020E1E216F10419F442C0B8
:10087000F0E3FA8388E0E816F10431F154F4E2E0A1
:10088000EE16F10451F5812C912CA12C50E4B52EDB
:1008900048C0FAE0EF16F10441F020E1E216F1045D
:1008A000E1F43AC08A81803341F13AE0E32EF12C41
:1008B0004CEC842E982CA82C4CE0B42E32C0E114C1
:1008C000F104B1F680E38A8398E0E92EF12C812CC3
:1008D000912CA12C20E1B22E24C060E070E080E0D9
:1008E00090E897010F2C000C440B550BCDD049011B
:1008F0005A0117C02A81203379F4F80180818F7D55
:100900008835E9F6F181FA830E5F1F4F2B81226053
:100910002B8360E1E62EF12C812C912CA12C88E018
:10092000B82E80E020E030E0A90127010F2C000C58
:100930006608770818019A81905399839A3078F065
:100940009A8191549A3120F4EA81E753E98307C0F0
:100950009A8191569A3148F5FA81F755F983998130
:10096000692F70E06E157F0504F587FD18C08216AB
:100970009306A406B50680F0C301B2016CD09B01BA
:10098000AC01E9812E0F311D411D511D2130310572
:100990004105F0E85F0710F08FEF01C081E00F5FC5
:1009A0001F4FF101F081FA83C5CF9B819170C11473
:1009B000D10489F0882331F001501109F601118327
:1009C000008309C0FB81F1FF1AC002501109F60132
:1009D0001183008314C087FF12C0992329F020E0FF
:1009E00030E040E050E804C02FEF3FEF4FEF5FE70B
:1009F00082E290E09093AD008093AC0009C099230F
:100A000079F050954095309521953F4F4F4F5F4F6E
:100A1000B901CA0112C060E070E080E090E00DC052
:100A200057FFF6CF82E290E09093AD008093AC0048
:100A30002FEF3FEF4FEF5FE7EBCF2396E2E1BDCE25
:100A4000911106C0803219F089508550D0F7089571
:100A5000992788270895EE27FF27AA27BB2708C0D4
:100A6000A20FB31FE41FF51F220F331F441F551F92
:100A7000969587957795679598F37040A9F70097B5
:100A800099F7BD01CF010895A1E21A2EAA1BBB1B45
:100A9000FD010DC0AA1FBB1FEE1FFF1FA217B3074A
:100AA000E407F50720F0A21BB30BE40BF50B661F60
:100AB000771F881F991F1A9469F760957095809524
:100AC00090959B01AC01BD01CF010895F894FFCF33
:100AD000415424543F0D41542453463D000000002E
:100AE00000000000000030313233343536373839F9
:080AF000414243444546000069
:00000001FF
