:100000000EC01DC070C035C21AC019C018C017C0BC
:1000100016C015C08CC013C024C111C09FC01124CC
:100020001FBECFE5D1E0DEBFCDBF20E0A0E6B0E04F
:1000300001C01D92A438B207E1F791D21BC3E0CFF3
:10004000EF92FF920F931F93CF93DF937C01C0E059
:10005000D0E08B0101501109C017D1077CF4F701E2
:1000600081917F01BFD08D3011F02196F5CFF7013E
:100070008081B8D08A30C9F7CE0102C08FEF9FEFE0
:10008000CDB7DEB7E6E0E7C2F89483B7809370009F
:100090008AB5809371001DB8A89A8BB780628BBF18
:1000A000B898C09A789408951092600010926100F8
:1000B0000895F89482B780936F0010926E008BB70A
:1000C0008F7D8BBF82E08ABD83BF8CB581608CBD84
:1000D00012BE80E389BD88B7806188BF89B780611F
:1000E00089BF789408951F920F920FB60F92112432
:1000F0002F933F934F935F936F937F938F939F9330
:10010000AF93BF93EF93FF93B09BD3DFFF91EF913A
:10011000BF91AF919F918F917F916F915F914F911F
:100120003F912F910F900FBE0F901F9018951F9227
:100130000F920FB60F9211248F9389B78F7E89BFCC
:1001400012BE88E689BD8DB184648DB988E48EB90C
:100150008F910F900FBE0F901F9018951F920F92C6
:100160000FB60F9211248F93EF93FF93F89480B3FF
:1001700080936D00809160008B3038F080B3809365
:1001800061001092620081E010C0E0916000F0E038
:1001900080B3EF59FF4F8083E0916000F0E0EE59AB
:1001A000FF4F1082809160008F5F809360001DB8C8
:1001B00081E080936E00809171008ABD8091700013
:1001C00083BF80916F0082BF80E28ABF8BB780625D
:1001D0008BBF7894FF91EF918F910F900FBE0F908E
:1001E0001F901895982F96959575880F8A7A982B59
:1001F000892F869586958373990F990F9C7C892BFF
:10020000829508959C010A9714F029E030E0922F1E
:100210009770283031050CF09062906184B7877F29
:1002200084BF81B5886181BD91BD81B5806481BD88
:10023000089525B797B3379885B7877E806185BFC6
:1002400085B7846985BF85B7837F85BF85B78062A1
:1002500085BF889585B78F7D85BF379A25BF97BBAA
:1002600008951F920F920FB60F9211240F900FBE98
:100270000F901F9018950F931F93F894109283007E
:100280001092820010927E0010927F0010928000E7
:100290001092810027E820BF2CB522602CBD1FBC26
:1002A0002DE72DBD28B7206428BF29B7206429BFBA
:1002B000789400917E0010917F0020918000309111
:1002C0008100061717072807390798F389B78F7B2E
:1002D00089BF1F910F910895F89421E030E0309389
:1002E00083002093820091E090937D0094E890BF7A
:1002F0009CB592609CBD1FBC8DBD88B7806488BFD3
:1003000089B7806489BF78940895CF92DF92EF9285
:10031000FF92CF93DF93D82FC0E06B01770FEE08E9
:10032000FF08CD1751F0C49AC701B601A4DFC498E5
:10033000C701B601A0DFCF5FF4CFDF91CF91FF906F
:10034000EF90DF90CF900895B199FECFB19BFECF93
:1003500008950F931F93CF93DF93F6DF0091600012
:1003600010E00115110549F468EC70E082E0CDDF82
:10037000DF91CF911F910F910895C0E0D0E0FE0171
:10038000EF59FF4F80812EDFA7DFDEDF2196C017F8
:10039000D107ACF3E9CF22E030E030938300209323
:1003A00082001092790010927A0010927B001092D5
:1003B0007C0010927800AB0160E070E04093720026
:1003C000509373006093740070937500909377005E
:1003D0008093760089B78F7B89BF84E880BF8CB516
:1003E00082608CBD1FBC8CE58DBD88B7806488BFE2
:1003F000C398789489B7806489BF809178008C30E5
:10040000E0F389B78F7B89BFC39A8091790090917F
:100410007A00A0917B00B0917C000196A11DB11DD6
:100420008093790090937A00A0937B00B0937C0036
:100430004091790050917A0060917B0070917C002E
:100440008091720090917300A0917400B09175003A
:10045000481759076A077B0758F4109278008CB543
:1004600082608CBD1FBC88B7806488BFC398C2CF30
:1004700008951F920F920FB60F9211242F933F935E
:100480008F939F93AF93BF93EF93FF9380918200DD
:1004900090918300029749F588E68DBD809179009F
:1004A00090917A00A0917B00B0917C002091760021
:1004B00030917700F901E80FF91F808120917800D1
:1004C00090E002C0959587952A95E2F780FD04C0DB
:1004D00080917800883010F0C39A01C0C398809151
:1004E00078008F5F809378002DC08091820090917A
:1004F0008300019771F480917D00882311F0C49AE4
:1005000001C0C49890917D0081E0891B80937D009B
:1005100019C08091820090918300892B99F4809179
:100520007E0090917F00A0918000B09181000196A3
:10053000A11DB11D80937E0090937F00A093800049
:10054000B0938100FF91EF91BF91AF919F918F91F7
:100550003F912F910F900FBE0F901F901895ACE018
:10056000B0E0E4EBF2E055C08FDD88E090E04ADED9
:10057000B998C19ABC9AC498BB9AC39A8DE7ACDE6D
:10058000809160008823E1F36091600070E081E673
:1005900090E056DD7C01CE0101966C0100E010E098
:1005A0005C0147019FEF891A990A801691065CF059
:1005B000F801EF59FF4F808115DEF60181936F013D
:1005C0000F5F1F4FF2CFB7016E5F7F4FF501E60F50
:1005D000F71F1082EF20E09441F0C501DCDE64DDFE
:1005E00068EC70E082E091DECBCF8091600064E146
:1005F00001D0C5CF002480FD060E660F11F0869550
:10060000D1F7802D08952F923F924F925F926F9273
:100610007F928F929F92AF92BF92CF92DF92EF9292
:10062000FF920F931F93CF93DF93CDB7DEB7CA1B13
:10063000DB0B0FB6F894DEBF0FBECDBF09942A883E
:10064000398848885F846E847D848C849B84AA84E6
:10065000B984C884DF80EE80FD800C811B81AA8173
:10066000B981CE0FD11D0FB6F894DEBF0FBECDBF3E
:08067000ED010895F894FFCF9D
:00000001FF
