:100000000EC028C0C8C022C425C024C023C022C03E
:1000100052C220C0E4C01EC0E2C21CC0F7C01124FE
:100020001FBECFE5D1E0DEBFCDBF10E0A0E6B0E05F
:10003000E6EAFCE002C005900D92A239B107D9F7BB
:1000400020E0A2E9B0E001C01D92A83CB207E1F7B0
:1000500073D427C6D5CFA3E0B0E0E0E3F0E0AEC4B0
:100060008091600090916100A091620089839A83E1
:10007000AB8363E070E0CE0101967ED360ED77E064
:1000800080E090E0EDD269D02396E2E0B3C4ACE02A
:10009000B0E0ECE4F0E092C487E0E3E6F0E0DE01FB
:1000A000119601900D928A95E1F767E070E0CE011C
:1000B000019662D365E070E0CE0108964ED19C01B6
:1000C0002E5F3F4F2230310520F447D08FEF9FEF56
:1000D00022C0029791F0809192008431B1F7809113
:1000E0009300D7D0853489F780919400D2D082359F
:1000F00061F733D08EEF9FEF0EC088858F3429F7DC
:1001000089858B3411F760ED77E080E090E0A8D22C
:1001100024D080E090E02C96E2E06CC4CF93DF9393
:10012000C3E0D0E0B4DF029631F464E670E083E02F
:10013000DFD22197B9F7DF91CF91089583B78093EC
:10014000AF008AB58093B0001DB8A89A8BB78062C3
:100150008BBFB898C09A789408951092920010922C
:100160009300089582B78093AE001092AD008BB7D4
:100170008F7D8BBF82E08ABD83BF8CB581608CBDD3
:1001800012BE80E389BD88B7806188BF89B780616E
:1001900089BF789408951F920F920FB60F92112481
:1001A0002F933F934F935F936F937F938F939F937F
:1001B000AF93BF93EF93FF93B09BD4DFFF91EF9189
:1001C000BF91AF919F918F917F916F915F914F916F
:1001D0003F912F910F900FBE0F901F9018951F9277
:1001E0000F920FB60F9211248F9389B78F7E89BF1C
:1001F00012BE88E689BD8DB184648DB988E48EB95C
:100200008F910F900FBE0F901F9018951F920F9215
:100210000FB60F9211248F93EF93FF9380B38093C7
:10022000AC0080919200883138F080B380939300C5
:100230001092940081E010C0E0919200F0E080B351
:10024000ED56FF4F8083E0919200F0E0EC56FF4FB7
:100250001082809192008F5F809392001DB881E0A0
:100260008093AD008091B0008ABD8091AF0083BFC4
:100270008091AE0082BF80E28ABF8BB780628BBF65
:100280007894FF91EF918F910F900FBE0F901F9078
:100290001895982F96959575880F8A7A982B892F9F
:1002A000869586958373990F990F9C7C892B8295EF
:1002B0000895EF92FF920F931F93CF93DF937C01EA
:1002C0008B01C0E0D0E0C017D1075CF4F701EC0F60
:1002D000FD1F8081DEDF8D3039F08A3029F02196D4
:1002E000F2CF8FEF9FEF01C0CE01CDB7DEB7E6E0D2
:1002F0007DC3A0E0B0E0EEE7F1E05AC38C017B01E2
:100300006091920070E083E990E0D3DF8F3F2FEFA0
:100310009207E9F0EC01E816F9060CF4E701680130
:10032000E12CF12CEC16FD0664F4F701ED56FF4FBD
:100330008081AFDFF60181936F01FFEFEF1AFF0AB3
:10034000F1CFF801EC0FFD1F1082CE0102C08FEF3C
:100350009FEFCDB7DEB7E8E047C3EF92FF920F9370
:100360001F93CF93DF938C017B01C0EDD7E0809189
:100370009200882339F0809192008823D1F0C0ED5B
:10038000D7E008C061E070E080E090E069D121979B
:1003900071F7F1CFB701C801ACDF181619065CF090
:1003A00061E070E080E090E05BD1219799F78EEFFB
:1003B00001C08FEF9FEFCDB7DEB7E6E017C3ABE02C
:1003C000B0E0E4EEF1E0FAC286E0EAE6F0E0DE0159
:1003D000119601900D928A95E1F766E070E0CE01EA
:1003E0000196CAD165E070E0CE010796B6DFB5DEB2
:1003F0004AE050E060E070E0CE01079606D3CB0102
:100400002B96E2E0F7C2A5E1B0E0E8E0F2E0D2C26C
:1004100064E670E083E06CD1D2DF8C016DD07C01AA
:10042000C801885C9109893C910508F041C087E0CA
:10043000E0E7F0E0DE01119601900D928A95E1F778
:10044000FE01389689E0DF011D928A95E9F728E0E0
:1004500030E04AE050E0BE01695F7F4FC801C9D07B
:100460001C8525E030E047E050E0BE01695F7F4F2A
:10047000C701BFD01C878DE08F876FE070E0CE0191
:1004800001967AD165E070E0CE01419666DF029771
:1004900051F489898F3439F48A898B3421F468ECDA
:1004A00070E084E003C068EC70E083E021D155DEA9
:1004B0006596E6E09BC21F920F920FB60F92112431
:1004C0002F938F939F9384B125B190E0922B9093BB
:1004D000B2008093B10081E08093B3009F918F912F
:1004E0002F910F900FBE0F901F90189583E887B93A
:1004F0008EE886B913B80895CF92DF92EF92FF92FB
:10050000CF93DF93C0E1D7E2C12CD12C76011092BA
:10051000B3001092B2001092B100369A4CD0809184
:10052000B3008823E1F38091B1009091B200C80E2E
:10053000D91EE11CF11C219751F7C701B6012DE529
:1005400034E240E050E008D2C901DF91CF91FF9042
:10055000EF90DF90CF9008959C010A9714F029E066
:1005600030E0922F9770283031050CF09062906146
:1005700084B7877F84BF81B5886181BD91BD81B516
:10058000806481BD089525B797B3379885B7877E76
:10059000806185BF85B7846985BF85B7837F85BF47
:1005A00085B7806285BF889585B78F7D85BF379A6F
:1005B00025BF97BB089595B785B7877E886085BFAF
:1005C00085B78C6885BF85B78B7E85BF85B7806210
:1005D00085BF889585B78F7D85BF95BF08951F928C
:1005E0000F920FB60F9211240F900FBE0F901F9015
:1005F0001895CF93DF936115710569F1FC0140E017
:1006000050E04F5F5F4FA4E0F695E795AA95E1F7BC
:100610003097B9F7DB01A20FB31FED01FC01EF70BA
:10062000FF27E058FF4FE081EA93E4E09695879535
:10063000EA95E1F7009791F7FB01241B350BC0E326
:10064000CF01861B970B8217930714F4C193F8CF41
:100650001C92CA0102C08FEF9FEFDF91CF910895E6
:100660000F931F931092C5001092C4001092C00007
:100670001092C1001092C2001092C30027E820BF60
:100680002CB522602CBD1FBC2DE72DBD28B72064E2
:1006900028BF29B7206429BF78940091C000109129
:1006A000C1002091C2003091C30006171707280728
:1006B000390798F389B78F7B89BF1F910F910895F0
:1006C00021E030E03093C5002093C40091E0909386
:1006D000BF0094E890BF9CB592609CBD1FBC8DBDCF
:1006E00088B7806488BF89B7806489BF789408958B
:1006F000CF92DF92EF92FF92CF93DF93D82FC0E09B
:100700006B01770FEE08FF08CD1751F0C49AC701AF
:10071000B601A6DFC498C701B601A2DFCF5FF4CF50
:10072000DF91CF91FF90EF90DF90CF9008950895E3
:100730000F931F93CF93DF9380919200082F10E0C7
:100740000115110549F468EC70E082E0D1DFDF911A
:10075000CF911F910F9108956CE271E0C9DFC0E065
:10076000D0E0FE01ED56FF4F808193DDA9DF219699
:10077000C017D107B4F3E7CF22E030E03093C500D3
:100780002093C4001092BB001092BC001092BD00D8
:100790001092BE001092BA00AB0160E070E040938E
:1007A000B4005093B5006093B6007093B700909377
:1007B000B9008093B80089B78F7B89BF84E880BF78
:1007C0008CB582608CBD1FBC8CE58DBD88B7806404
:1007D00088BFC19889B7806489BF78948091BA0036
:1007E0008C30E0F389B78F7B89BFC19A8091BB00C1
:1007F0009091BC00A091BD00B091BE000196A11DDA
:10080000B11D8093BB009093BC00A093BD00B0933A
:10081000BE004091BB005091BC006091BD00709142
:10082000BE008091B4009091B500A091B600B09147
:10083000B700481759076A077B0738F41092BA00C7
:100840008CB582608CBD1FBCC1CF08951F920F92E2
:100850000FB60F9211242F933F938F939F93AF93D3
:10086000BF93EF93FF938091C4009091C5000297CE
:1008700049F588E68DBD8091BB009091BC00A091A8
:10088000BD00B091BE002091B8003091B900F901CF
:10089000E80FF91F80812091BA0090E002C0959581
:1008A00087952A95E2F780FD04C08091BA008830D0
:1008B00010F0C19A01C0C1988091BA008F5F8093F7
:1008C000BA002DC08091C4009091C500019771F4C9
:1008D0008091BF00882311F0C49A01C0C498909100
:1008E000BF0081E0891B8093BF0019C08091C400C4
:1008F0009091C500892B99F48091C0009091C1001E
:10090000A091C200B091C3000196A11DB11D8093BA
:10091000C0009093C100A093C200B093C300FF91A8
:10092000EF91BF91AF919F918F913F912F910F9038
:100930000FBE0F901F90189501DC88E090E00CDE50
:10094000BC9AC498B99AC19A86DBE8DBCFDD1BDE7E
:1009500082DB59DDE3DBFBCFA1E21A2EAA1BBB1B16
:10096000FD010DC0AA1FBB1FEE1FFF1FA217B3077B
:10097000E407F50720F0A21BB30BE40BF50B661F91
:10098000771F881F991F1A9469F760957095809555
:1009900090959B01AC01BD01CF0108952F923F922C
:1009A0004F925F926F927F928F929F92AF92BF927F
:1009B000CF92DF92EF92FF920F931F93CF93DF932B
:1009C000CDB7DEB7CA1BDB0B0FB6F894DEBF0FBE88
:1009D000CDBF09942A88398848885F846E847D84D5
:1009E0008C849B84AA84B984C884DF80EE80FD80D7
:1009F0000C811B81AA81B981CE0FD11D0FB6F8944D
:100A0000DEBF0FBECDBFED010895A3E0B0E0EAE088
:100A1000F5E0C4CF5C016B017A016115710519F035
:100A2000FB0191838083E114F10429F0C70102974F
:100A3000839708F0FDC085010F5F1F4FF501F0811E
:100A4000FA838F2F90E009D1892B11F05801F3CF51
:100A50002A812D3241F40F5F1F4FF501F181FA8396
:100A600021E02B830AC08A818B3231F485010E5F2D
:100A70001F4FF501F181FA831B82E114F104F9F0B3
:100A800020E1E216F10419F442C0F0E3FA8388E0B1
:100A9000E816F10431F154F4E2E0EE16F10451F5F8
:100AA000812C912CA12C50E4B52E48C0FAE0EF1611
:100AB000F10441F020E1E216F104E1F43AC08A8148
:100AC000803341F13AE0E32EF12C4CEC842E982C4B
:100AD000A82C4CE0B42E32C0E114F104B1F680E34E
:100AE0008A8398E0E92EF12C812C912CA12C20E115
:100AF000B22E24C060E070E080E090E897010F2CF7
:100B0000000C440B550B28DF49015A0117C02A81FC
:100B1000203379F4F80180818F7D8835E9F6F18101
:100B2000FA830E5F1F4F2B8122602B8360E1E62E3C
:100B3000F12C812C912CA12C88E0B82E80E020E0B3
:100B400030E0A90127010F2C000C66087708180176
:100B50009A81905399839A3078F09A8191549A317E
:100B600020F4EA81E753E98307C09A8191569A31CC
:100B700048F5FA81F755F9839981692F70E06E1570
:100B80007F0504F587FD18C082169306A406B506F6
:100B900080F0C301B2016CD09B01AC01E9812E0F42
:100BA000311D411D511D213031054105F0E85F0720
:100BB00010F08FEF01C081E00F5F1F4FF101F08156
:100BC000FA83C5CF9B819170C114D10489F0882329
:100BD00031F001501109F6011183008309C0FB8136
:100BE000F1FF1AC002501109F6011183008314C0ED
:100BF00087FF12C0992329F020E030E040E050E860
:100C000004C02FEF3FEF4FEF5FE782E290E0909359
:100C1000C7008093C60009C0992379F0509540958C
:100C2000309521953F4F4F4F5F4FB901CA0112C018
:100C300060E070E080E090E00DC057FFF6CF82E208
:100C400090E09093C7008093C6002FEF3FEF4FEFE7
:100C50005FE7EBCF2396E2E1BDCE911106C0803273
:100C600019F089508550D0F708959927882708955D
:100C7000EE27FF27AA27BB2708C0A20FB31FE41F38
:100C8000F51F220F331F441F551F969587957795A3
:100C9000679598F37040A9F7009799F7BD01CF01C8
:060CA0000895F894FFCF57
:100CA6000D0D0D415424503D310D415424543F0D3A
:100CB60041542453463D000000000000000000009F
:100CC600303132333435363738394142434445467C
:020CD60000001C
:00000001FF
